:10000000E04900206107000059070000590700007F
:1000100059070000590700005907000000000000C0
:100020000000000000000000000000005907000070
:1000300059070000000000005907000059070000A0
:100040005907000059070000590700005907000030
:100050005907000059070000590700005907000020
:100060005907000059070000590700005907000010
:100070005907000059070000590700005907000000
:1000800059070000590700005907000059070000F0
:1000900059070000590700005907000059070000E0
:1000A00059070000590700005907000059070000D0
:1000B00059070000590700005907000059070000C0
:1000C00059070000590700005907000059070000B0
:1000D00059070000590700005907000059070000A0
:1000E0005907000059070000590700005907000090
:1000F0005907000059070000590700005907000080
:10010000590700005907000059070000590700006F
:10011000590700005907000059070000590700005F
:10012000590700005907000059070000590700004F
:10013000590700005907000059070000590700003F
:1001400059070000CD0600005907000059070000BC
:10015000590700005907000059070000590700001F
:10016000590700005907000059070000590700000F
:1001700059070000590700005907000059070000FF
:100180000348044B834202D0034B03B11847704726
:10019000D86C0000D86C0000000000000548064B39
:1001A0001B1AD90F01EBA301491002D0034B03B175
:1001B00018477047D86C0000D86C000000000000A1
:1001C00010B5064C237843B9FFF7DAFF044B13B19F
:1001D0000448AFF300800123237010BDF805002010
:1001E00000000000D46C000008B5054B1BB10549A8
:1001F0000548AFF30080BDE80840FFF7CFBF00BF60
:1002000000000000FC050020D46C0000A3F5803A3B
:10021000704700BF174B002B08BF134B9D46FFF7DD
:10022000F5FF00218B460F461348144A121A06F0B8
:10023000EDF80E4B002B00D098470D4B002B00D053
:1002400098470020002104000D000D48002802D02E
:100250000C4806F0D5F806F029F92000290000F036
:10026000B9F905F093FB00BF000008000000000092
:100270000000000000000000F8050020E009002058
:1002800001640000FD64000080B483B000AF034649
:10029000FB7197F90730002B0BDBFB7903F01F0292
:1002A000064997F907305B09012000FA02F241F88C
:1002B000232000BF0C37BD4680BC704700E100E042
:1002C00080B489B000AF78607B68FB61FB69BB617B
:1002D000BB695A09FB697B617B6903F01F0301213C
:1002E00001FA03F33A61FB603B69BB60BB6803F54D
:1002F000001303F5E1635B021A46FB68936000BFDD
:1003000000BF00BF2437BD4680BC704780B48DB0AD
:1003100000AF786039607B68FB623B68BB62FB6A58
:100320007B627B6A5A09FB6A3B623B6A03F01F03EC
:10033000012101FA03F3FA61BB61BB6A7B61FB69CE
:100340003B613B6903F5001303F5E1635B02FB606E
:100350007B6903F00803002B03D0FB68BA695A6776
:1003600002E0FB68BA699A677B6903F01003002B0F
:1003700004D0FB68BA69C3F8842003E0FB68BA695B
:10038000C3F888207B6903F04003002B04D0FB688E
:10039000BA69C3F8C42003E0FB68BA69C3F8C8208F
:1003A0007B6903F08003002B04D0FB68BA69C3F8B3
:1003B000042103E0FB68BA69C3F808217B6903F0F4
:1003C0000103002B03D0FB68BA695A6102E0FB68A5
:1003D000BA699A617B6903F00203002B03D0FB68C2
:1003E000BA695A6202E0FB68BA699A627B6903F0F3
:1003F0000403002B03D0FB68BA695A6302E0FB6870
:10040000BA699A6300BF00BF00BF3437BD4680BCE5
:10041000704780B495B000AF78600B46FB707B6886
:10042000FB64FB7887F84B3097F84B30012B31D1C8
:10043000FB6C7B647B6C3B643B6C5B09FB63FB6B21
:1004400003F5001303F5E1635B02194600BFFB6C83
:10045000BB63BB6B03F01F03012202FA03F34B647F
:10046000FB6C7B637B6B3B633B6B5B09FB62FB6AF7
:1004700003F5001303F5E1635B02194600BFFB6C53
:10048000BB62BB6A03F01F03012202FA03F3C1F847
:10049000683134E097F84B30002B30D1FB6C7B6235
:1004A0007B6A3B623B6A5B09FB61FB6903F50013F6
:1004B00003F5E1635B02194600BFFB6CBB61BB69DE
:1004C00003F01F03012202FA03F38B64FB6C7B61D0
:1004D0007B693B613B695B09FB60FB6803F50013CB
:1004E00003F5E1635B02194600BFFB6CBB60BB68B0
:1004F00003F01F03012202FA03F3C1F8643100BFC5
:1005000000BF5437BD4680BC704780B48DB000AF8B
:1005100078600B46FB707B68FB62FB7887F82B30BA
:1005200097F82B30002B18D0FB6A7B627B6A3B620A
:100530003B6A5B09FB61FB6903F5001303F5E163AB
:100540005B02194600BFFB6ABB61BB6903F01F0376
:10055000012202FA03F34B6517E0FB6A7B617B69BA
:100560003B613B695B09FB60FB6803F5001303F526
:10057000E1635B02194600BFFB6ABB60BB6803F026
:100580001F03012202FA03F38B6500BF00BF34375B
:10059000BD4680BC704780B485B000AF7860002352
:1005A000FB600DE00023BB6003E000BFBB680133CC
:1005B000BB60BB68B3F57A7FF7D3FB680133FB60A0
:1005C000FA687B689A42EDD300BF00BF1437BD467E
:1005D00080BC704790B58BB000AF00F0FFF804F01E
:1005E00097FC4120FFF750FE334803F021FF012123
:1005F0004720FFF70EFF314B1B6801211846FFF71C
:1006000085FE2F4B1B6801211846FFF77FFE2B4B01
:100610001B681846FFF754FE294B1B681846FFF766
:100620004FFE284B1B68184603F002FF07F110032A
:1006300000221A605A609A60DA601A615A614FF4B7
:10064000E1333B61C0237B614FF40063BB611D4B11
:100650001C681C4B1B68184603F068FD024607F136
:1006600010031946204600F022FB164B1B68184663
:1006700000F0B7FF134B1B68184600F0E3FF114B67
:100680001B680121184601F00EF80F4A3B1D07CAEE
:1006900003C31A800233120C1A706420FFF77BFF29
:1006A00001214720FFF731FF6420FFF774FF00218D
:1006B0004720FFF72AFFF0E700100E407C000020E3
:1006C0008000002078000020706C000080B582B0AF
:1006D00000AF1D4B1B68184601F00AF8034603F0F3
:1006E0000103012B2BD1184B1B68184A12681146C5
:1006F000184601F04CF9154B1B68154A934203D07C
:10070000124B1B68013300E0124B104A13600F4B71
:100710001B68104A934212D100237B600CE00A4B05
:100720001A680C497B680B441B781946104601F087
:10073000E7F87B6801337B607B680F2BEFDD00BF40
:100740000837BD4680BD00BF78000020840000202F
:100750002B0600201C06002080B400AFFEE700003E
:1007600080B582B000AF164B7B60164B3B607A6859
:100770003B689A420CD007E07A68131D7B603B68A7
:10078000191D396012681A603B680F4A9342F3D30F
:100790000E4B3B6004E03B681A1D3A6000221A6071
:1007A0003B680B4A9342F6D30A4B7B607B680A4A4C
:1007B00023F07F03936005F079FEFFF70BFFFEE760
:1007C000D86C000000000020F8050020F80500208B
:1007D000E00900200000000000ED00E080B400AF60
:1007E000034B044A1A6000BFBD4680BC704700BF7F
:1007F0008800002038C1010080B400AF034B044AD8
:100800001A6000BFBD4680BC704700BF8800002052
:1008100038C1010080B500AF024803F009FE00BFF7
:1008200000BF80BD00100E4080B48DB000AF786076
:1008300039607B68FB623B68BB62FB6A7B627B6AF8
:100840005A09FB6A3B623B6A03F01F03012101FA6C
:1008500003F3FA61BB61BB6A7B61FB693B613B6986
:1008600003F5001303F5E1635B02FB607B6903F0B2
:100870000803002B03D0FB68BA695A6702E0FB68E3
:10088000BA699A677B6903F01003002B04D0FB68F8
:10089000BA69C3F8842003E0FB68BA69C3F888200A
:1008A0007B6903F04003002B04D0FB68BA69C3F8EE
:1008B000C42003E0FB68BA69C3F8C8207B6903F071
:1008C0008003002B04D0FB68BA69C3F8042103E05D
:1008D000FB68BA69C3F808217B6903F00103002BA8
:1008E00003D0FB68BA695A6102E0FB68BA699A6191
:1008F0007B6903F00203002B03D0FB68BA695A62DC
:1009000002E0FB68BA699A627B6903F00403002B7A
:1009100003D0FB68BA695A6302E0FB68BA699A635C
:1009200000BF00BF00BF3437BD4680BC704780B4F5
:1009300095B000AF78600B46FB707B68FB64FB787A
:1009400087F84B3097F84B30012B31D1FB6C7B642F
:100950007B6C3B643B6C5B09FB63FB6B03F5001337
:1009600003F5E1635B02194600BFFB6CBB63BB6B25
:1009700003F01F03012202FA03F34B64FB6C7B6359
:100980007B6B3B633B6B5B09FB62FB6A03F500130C
:1009900003F5E1635B02194600BFFB6CBB62BB6AF7
:1009A00003F01F03012202FA03F3C1F8683134E0B7
:1009B00097F84B30002B30D1FB6C7B627B6A3B623B
:1009C0003B6A5B09FB61FB6903F5001303F5E16317
:1009D0005B02194600BFFB6CBB61BB6903F01F03E0
:1009E000012202FA03F38B64FB6C7B617B693B6140
:1009F0003B695B09FB60FB6803F5001303F5E163EA
:100A00005B02194600BFFB6CBB60BB6803F01F03B1
:100A1000012202FA03F3C1F8643100BF00BF54376A
:100A2000BD4680BC704780B48DB000AF78600B4687
:100A3000FB707B68FB62FB7887F82B3097F82B30D4
:100A4000002B18D0FB6A7B627B6A3B623B6A5B09C6
:100A5000FB61FB6903F5001303F5E1635B021946D3
:100A600000BFFB6ABB61BB6903F01F03012202FAEE
:100A700003F34B6517E0FB6A7B617B693B613B6974
:100A80005B09FB60FB6803F5001303F5E1635B02A0
:100A9000194600BFFB6ABB60BB6803F01F0301225D
:100AA00002FA03F38B6500BF00BF3437BD4680BC3C
:100AB000704780B588B000AF3B1D184602F0E4FCDB
:100AC0003A1D07F118030F49184602F0FEFC07F122
:100AD0001803184602F0A0FDFFF79CFE01214720F5
:100AE000FFF725FF01214720FFF79DFF0021582038
:100AF000FFF71DFF08215820FFF796FE00BF2037A3
:100B0000BD4680BD000C0F4080B489B000AFF860D6
:100B1000B9607A60BB681B017A689A4202D31023DD
:100B2000FB6101E00823FB617B68DA00FB69B968BF
:100B300001FB03F35B081A44FB69B96801FB03F38B
:100B4000B2FBF3F3BB61BB69DB087B61BB6903F0FC
:100B500007033B617B69002B03D07B69B3F5803FC2
:100B600001D301230FE0FB69082B05D1FB685B680B
:100B700043F40022FB685A603B691A047B691A43FC
:100B8000FB681A62002318462437BD4680BC7047B4
:100B900080B487B000AFF860B9607A60BB685A086B
:100BA0007B681A44BB68B2FBF3F37B617B69002B63
:100BB00003D07B69B3F5803F01D301230BE0FB68D1
:100BC0007A691A62FB685B6823F4987343F4807255
:100BD000FB685A60002318461C37BD4680BC70472E
:100BE00080B483B000AF78607B685B6843F4987230
:100BF0007B685A6000BF0C37BD4680BC704780B42C
:100C000087B000AFF860B9607A60BB685A087B684B
:100C10001A44BB68B2FBF3F37B617B69032B03D9F6
:100C20007B69B3F5803F01D3012303E0FB687A6958
:100C30001A62002318461C37BD4680BC704780B43A
:100C400083B000AF78607B685B6823F030027B681C
:100C50005A607B685B6843F030027B685A6000BF73
:100C60000C37BD4680BC704780B582B000AF78605D
:100C7000786800F0B3FE7B6800225A607B6800222F
:100C80005A627B6800229A62786800F0C2FC786839
:100C900000F0F0FC786800F036FD786800F0BBFDED
:100CA000786800F09EFD00BF0837BD4680BD80B566
:100CB00084B000AFF860B9607A60F868FFF7D4FFDD
:100CC000184B00221A60BB68002B09D0BB681B6858
:100CD0007A681946F868FFF717FF0346002B01D022
:100CE00001231BE0BB685A68BB689B681A43BB685A
:100CF0001B691A43BB68DB681A430A4B1B68134322
:100D0000084A1360074B1B68064A1360FB685A6861
:100D1000044B1B681A43FB685A60002318461037BF
:100D2000BD4680BD3C06002080B584B000AFF860B1
:100D3000B9607A607A68B968F868FFF7B8FF034667
:100D4000002B01D0012308E0FB685B6823F00F0350
:100D500043F00202FB685A60002318461037BD4674
:100D600080BD80B584B000AFF860B9607A60FB6880
:100D70000D4A934201D0012312E07A68B968F868FD
:100D8000FFF795FF0346002B01D0012308E0FB6825
:100D90005B6823F00F0343F00302FB685A600023F3
:100DA00018461037BD4680BD0040024080B584B073
:100DB00000AFF860B9607A60F868FFF755FF1A4B2A
:100DC00000221A60BB68002B09D0BB681B687A68D8
:100DD0001946F868FFF7DCFE0346002B01D001231B
:100DE0001DE0BB685A68BB689B681A43BB681B69F7
:100DF0001A43BB68DB681A430B4B1B6813430A4A50
:100E00001360094B1B6843F48023074A1360FB6897
:100E10005A68054B1B681A43FB685A600023184642
:100E20001037BD4680BD00BF4006002080B582B0AF
:100E300000AF786039607868FFF716FF154B002225
:100E40001A607868FFF7CCFE3B68002B01D10123C4
:100E50001BE03B685A683B689B681A433B681B6908
:100E60001A433B68DB681A430A4B1B681343094A61
:100E70001360084B1B68074A13607B685A68054B70
:100E80001B681A437B685A60002318460837BD4622
:100E900080BD00BF4406002080B584B000AFF8607C
:100EA000B9607A607A68B968F868FFF700FF0346AE
:100EB000002B01D0012308E0FB685B6823F00F03DF
:100EC00043F00102FB685A60002318461037BD4604
:100ED00080BD80B584B000AFF860B9607A607A6890
:100EE000B968F868FFF7E3FE0346002B01D0012341
:100EF0000CE0BB685A69FB68DA64FB685B6823F046
:100F00000F0343F00802FB685A60002318461037AD
:100F1000BD4680BD80B487B000AFF860B9607A602C
:100F2000BB685A087B681A44BB68B2FBF3F37B6169
:100F30007B69002B03D07B69B3F5803F01D301238C
:100F40000DE0FB685B6823F4402323F4987343F4BB
:100F50008022FB685A60FB687A691A62002318468F
:100F60001C37BD4680BC704780B584B000AFF860C8
:100F7000B9607A60F868FFF777FE3D4B00221A608F
:100F8000BB68002B08D0BB689B68002B06D0BB68F1
:100F90009B68B3F5007F01D0012364E0BB68DB6987
:100FA000002B16D1BB685B691A06314B1B681343D3
:100FB00043F4005343F004032D4A1360BB689B695C
:100FC000002B1DD02A4B1B6843F48033284A136042
:100FD00016E0BB68DB69012B10D1BB689B69002B55
:100FE00003D1BB685B69002B01D001233BE0204BA0
:100FF0001B6843F006031E4A136001E0012332E040
:10100000BB681B687A681946F868FFF783FF0346D8
:10101000002B01D0012326E0BB685A68FB681A64E4
:10102000BB689A68124B1B681343114A1360BB6874
:10103000DB68002B05D00E4B1B6843F480130C4A71
:101040001360BB681B69002B05D0094B1B6843F478
:101050000013074A1360FB685A68054B1B681A4364
:10106000FB685A60002318461037BD4680BD00BF9C
:101070004806002080B483B000AF78607B684FF4EE
:1010800000521A6000BF0C37BD4680BC704780B468
:1010900083B000AF78607B684FF480421A6000BF75
:1010A0000C37BD4680BC704780B483B000AF786019
:1010B0007B685B6903F48053002B14BF012300237A
:1010C000DBB218460C37BD4680BC704780B483B095
:1010D00000AF78607B685B6CDBB218460C37BD46AE
:1010E00080BC704780B584B000AFF860B9607A60AA
:1010F000F868FFF7B9FD3C4B00221A60BB68002B73
:101100000DD0BB689B68032B09D8BB681B687A6845
:101110001946F868FFF773FD0346002B01D0012341
:101120005DE0BB685A68304B1B6813432E4A13605E
:10113000BB68DA682C4B1B68134343F4802343F0ED
:101140000E03294A1360BB689B68032B3ED801A29B
:1011500052F823F0651100007F1100009911000082
:10116000B3110000204B1B6843F480731E4A1360C8
:101170001D4B1B6823F480331B4A136027E01A4B76
:101180001B6823F48073184A1360174B1B6823F401
:101190008033154A13601AE0134B1B6843F48073C5
:1011A000114A1360104B1B6843F480330E4A1360DE
:1011B0000DE00D4B1B6823F480730B4A13600A4B40
:1011C0001B6843F48033084A136000E000BFFB68EB
:1011D0005A68054B1B681A43FB685A60002318467F
:1011E0001037BD4680BD00BF4C06002080B582B0E0
:1011F00000AF786039607868FFF736FD374B002222
:101200001A607868FFF71BFD3B68002B03D03B6832
:101210009B68032B01D901235BE03B685A682F4B85
:101220001B6813432D4A13603B68DA682B4B1B681D
:10123000134343F00F03294A13603B689B68032B59
:101240003ED801A252F823F0591200007312000098
:101250008D120000A7120000204B1B6843F480731E
:101260001E4A13601D4B1B6823F480331B4A136016
:1012700027E01A4B1B6823F48073184A1360174B3E
:101280001B6823F48033154A13601AE0134B1B6864
:1012900043F48073114A1360104B1B6843F480338E
:1012A0000E4A13600DE00D4B1B6843F480330B4A6C
:1012B00013600A4B1B6823F48073084A136000E034
:1012C00000BF7B685A68054B1B681A437B685A60ED
:1012D000002318460837BD4680BD00BF50060020D9
:1012E00080B584B000AFF860B9607A60F868FFF745
:1012F000BBFC7A68B968F868FFF706FC0346002B68
:1013000001D001230EE0FB685B6823F00F0343F07C
:101310000A02FB685A60F86800F094F9F86800F077
:1013200060F9002318461037BD4680BD80B584B0F3
:1013300000AFF860B9607A60F868FFF795FCF8686C
:1013400000F080F9F86800F04CF9FB685B6823F066
:101350000F0343F00B02FB685A607A68B968F868BB
:10136000FFF7D2FB0346002B01D0012300E000234E
:1013700018461037BD4680BD80B483B000AF78609A
:101380007B684FF480121A6000BF0C37BD4680BCEA
:10139000704780B483B000AF78607B684FF4001270
:1013A0001A6000BF0C37BD4680BC704780B483B064
:1013B00000AF78600B46FB707B685B6D23F0030227
:1013C000FB781A437B685A6500BF0C37BD4680BC6A
:1013D000704780B483B000AF78607B685B6D43F08A
:1013E00004027B685A6500BF0C37BD4680BC70475D
:1013F00080B483B000AF78607B685B6D23F004023B
:101400007B685A6500BF0C37BD4680BC704780B40E
:1014100083B000AF78607B685B6D43F008027B6847
:101420005A6500BF0C37BD4680BC704780B483B09E
:1014300000AF78607B685B6D23F008027B685A65BB
:1014400000BF0C37BD4680BC704780B483B000AF8E
:1014500078600B46FB707B685B6D23F01002FB78B5
:101460001B011A437B685A6500BF0C37BD4680BC20
:10147000704780B483B000AF78600B46FB707B6828
:101480005B6D23F02002FB785B011A437B685A6591
:1014900000BF0C37BD4680BC704780B483B000AF3E
:1014A00078607B685B6D43F040027B685A6500BFE3
:1014B0000C37BD4680BC704780B483B000AF786005
:1014C0007B685B6D23F040027B685A6500BF0C3778
:1014D000BD4680BC704780B483B000AF78600B46D7
:1014E000FB707B685B6D23F08002FB78DB011A43A5
:1014F0007B685A6500BF0C37BD4680BC704780B41E
:1015000083B000AF78600B46FB707B685B6D23F4A3
:101510007F42FB78013B1B021A437B685A6500BF80
:101520000C37BD4680BC704780B483B000AF786094
:101530007B685B6D23F480327B685A6500BF0C3793
:10154000BD4680BC704780B483B000AF78607B68D4
:101550005B6D43F480327B685A6500BF0C37BD4633
:1015600080BC704780B483B000AF78600B46FB70DE
:101570007B689B6D23F0FF02FB781A437B689A65BA
:1015800000BF0C37BD4680BC704780B483B000AF4D
:1015900078607B689B6DDBB218460C37BD4680BC1B
:1015A000704780B485B000AF78607B685B6D03F0F6
:1015B0002003002B0AD07B689B6D1B0903F00303FB
:1015C000012202FA03F3FB73FB7B05E07B685B6D92
:1015D0001B0ADBB20133DBB218461437BD4680BCB0
:1015E000704780B483B000AF78607B6840221A6097
:1015F00000BF0C37BD4680BC704780B483B000AFDD
:1016000078607B6880221A6000BF0C37BD4680BCC2
:10161000704780B483B000AF78607B6888221A601E
:1016200000BF0C37BD4680BC704780B483B000AFAC
:10163000786039607B683A689A6200BF0C37BD46B3
:1016400080BC704780B483B000AF78607B681022A4
:101650001A6000BF0C37BD4680BC704780B483B0B1
:1016600000AF78607B6820221A6000BF0C37BD464F
:1016700080BC704780B483B000AF78607B68242260
:101680001A6000BF0C37BD4680BC704780B483B081
:1016900000AF786039607B683A685A6200BF0C37E7
:1016A000BD4680BC704780B483B000AF78603960BD
:1016B0007B683A689A6000BF0C37BD4680BC7047B3
:1016C00080B483B000AF786039607B683A68DA60D4
:1016D00000BF0C37BD4680BC704780B483B000AFFC
:1016E00078607B681B6918460C37BD4680BC704724
:1016F00080B483B000AF78607B685B6918460C37B4
:10170000BD4680BC704780B483B000AF78607B6812
:101710004FF480721A6000BF0C37BD4680BC704722
:1017200080B483B000AF78607B684FF400721A60B9
:1017300000BF0C37BD4680BC704780B483B000AF9B
:1017400078607B684FF480621A6000BF0C37BD463A
:1017500080BC704780B483B000AF78607B684FF482
:1017600000621A6000BF0C37BD4680BC704780B570
:1017700082B000AF786039607B685B6803F44063D7
:10178000B3F5406F01D001230DE07B684FF4805228
:101790001A603968786800F09BF80346002B01D086
:1017A000012300E0002318460837BD4680BD80B401
:1017B00083B000AF78607B684FF400421A6000BFCE
:1017C0000C37BD4680BC704780B483B000AF7860F2
:1017D0007B684FF480321A6000BF0C37BD4680BC76
:1017E000704780B483B000AF78607B684FF40032FC
:1017F0001A6000BF0C37BD4680BC704780B483B010
:1018000000AF78607B684FF480221A6000BF0C370D
:10181000BD4680BC704780B483B000AF78607B6801
:101820004FF400221A6000BF0C37BD4680BC7047E1
:1018300080B483B000AF78607B684FF480221A6078
:1018400000BF0C37BD4680BC704780B483B000AF8A
:1018500078607B684FF400221A6000BF0C37BD46E9
:1018600080BC704780B483B000AF78607B685B69F0
:1018700003F00203002B14BF01230023DBB2184640
:101880000C37BD4680BC704780B483B000AF786031
:101890007B685B6903F40073002B14BF01230023F2
:1018A000DBB218460C37BD4680BC704780B483B0AD
:1018B00000AF78607B685B6903F00103002B14BF05
:1018C00001230023DBB218460C37BD4680BC7047AD
:1018D00080B483B000AF786039607B685B6903F0E7
:1018E0000203002B01D1012305E03B68C3F308028A
:1018F0007B68DA61002318460C37BD4680BC704710
:1019000080B483B000AF7860396000BF7B685B69EA
:1019100003F00203002BF9D03B68C3F308027B6895
:10192000DA61002318460C37BD4680BC704780B58D
:1019300082B000AF7860396007E03B685A1C3A60BB
:101940001B7819467868FFF7DBFF3B681B78002B94
:10195000F3D100BF00BF0837BD4680BD80B483B05F
:1019600000AF786039607B685B6903F00103002B8E
:1019700001D1012306E07B689B69C3F308023B6841
:101980001A60002318460C37BD4680BC704780B4EF
:1019900083B000AF7860396000BF7B685B6903F09B
:1019A0000103002BF9D07B689B69C3F308023B68F5
:1019B0001A60002318460C37BD4680BC704780B4BF
:1019C00083B000AF78607B68034AC3F8E42000BFAF
:1019D0000C37BD4680BC70470141535580B483B07D
:1019E00000AF78607B68044AC3F8E42000BF0C377E
:1019F000BD4680BC704700BF0041535580B485B0E0
:101A000000AF78607B68D3F8E830FB60FB6803F0D8
:101A10000103002B03D0FB681B0A9BB200E00023EC
:101A200018461437BD4680BC704780B483B000AF01
:101A300078600B46FB707B681B6D23F00F02FB7810
:101A400003F00F031A437B681A6500BF0C37BD46CD
:101A500080BC704780B483B000AF78600B46FB70E9
:101A60007B681B6D23F44072FB781B021A437B6872
:101A70001A6500BF0C37BD4680BC704780B483B088
:101A800000AF78600B46FB707B681B6D23F48052BF
:101A9000FB781B031A437B681A6500BF0C37BD46F1
:101AA00080BC704780B483B000AF78600B46FB7099
:101AB0007B681B6D23F47022FB781B0403F47023F6
:101AC0001A437B681A6500BF0C37BD4680BC70475F
:101AD00080B483B000AF78600B46FB707B681B6DF1
:101AE00023F04072FB781B061A437B681A6500BF1F
:101AF0000C37BD4680BC704780B483B000AF7860BF
:101B00000B46FB707B681B6D23F08052FB781B0734
:101B10001A437B681A6500BF0C37BD4680BC70470E
:101B200080B483B000AF78607B681B6D43F0804267
:101B30007B681A6500BF0C37BD4680BC704780B417
:101B400083B000AF78607B681B6D23F080427B68B8
:101B50001A6500BF0C37BD4680BC704780B483B0A7
:101B600000AF78607B68D3F8FC3018460C37BD4670
:101B700080BC704780B588B000AF3B462022002172
:101B8000184604F043FC04233B8008237B80102389
:101B9000BB802023FB8030233B8140237B8160235B
:101BA000BB818023FB81C0233B824FF480737B8207
:101BB0004FF4C073BB824FF40073FB824FF4407349
:101BC0003B834FF480637B834FF40063BB83074BFD
:101BD000DB6803F00F035B0020333B4433F8203C09
:101BE0009B0218462037BD4680BD00BF00000A405A
:101BF00080B500AFFFF7BEFF03465B0A184680BD05
:101C000080B500AFFFF7F4FF03461B09184680BDFF
:101C100090B583B000AF78607B68002B03DA00F0EA
:101C20006BF9044600E07C68FFF7EAFF0346B4FB6B
:101C3000F3F318460C37BD4690BD80B582B000AFB7
:101C40007860FFF7DDFF02467B6802FB03F318466E
:101C50000837BD4680BD80B400AF064B1B6803F05B
:101C60004003002B14BF01230023DBB21846BD46FE
:101C700080BC704700000A4080B483B000AF786039
:101C8000084B1B6823F040037A68002A01D04022E9
:101C900000E00022034913430B6000BF0C37BD4630
:101CA00080BC704700000A4080B584B000AFF86087
:101CB000B9601346FB71BB68002B32D1FB68234A25
:101CC000934215D9FB68224A934208D80120FFF7B6
:101CD000D3FF4FF0FF31112000F01AF931E001205D
:101CE000FFF7CAFF4FF0FF31102000F011F928E094
:101CF000FB79002B0CD0FB68164A934208D80120D0
:101D0000FFF7BAFF4FF0FF31112000F001F918E0A2
:101D10000020FFF7B1FF4FF0FF31112000F0F8F87D
:101D20000FE0FB680C4A934203D90120FFF7A4FFA0
:101D300002E00020FFF7A0FF4FF0FF31112000F07C
:101D4000E7F800BF1037BD4680BD00BF80A8120174
:101D500000512502001BB70000127A0080B400AFCA
:101D6000064B1B6803F00103002B14BF0123002363
:101D7000DBB21846BD4680BC704700BF00000A4079
:101D800080B483B000AF0346FB71064B1A68FB7941
:101D900063F00103034913400B6000BF0C37BD46DD
:101DA00080BC704700000A4080B400AF064B1B683F
:101DB00003F00403002B14BF01230023DBB21846F9
:101DC000BD4680BC704700BF00000A4080B483B0AD
:101DD00000AF0346FB71064B1A68FB7963F00403FE
:101DE000034913400B6000BF0C37BD4680BC7047F1
:101DF00000000A4080B400AF064B1B6803F00803E4
:101E0000002B14BF01230023DBB21846BD4680BC63
:101E1000704700BF00000A4080B483B000AF0346A3
:101E2000FB71064B1A68FB7963F008030349134002
:101E30000B6000BF0C37BD4680BC704700000A40F5
:101E400080B400AF064B9B6803F00103002B14BF66
:101E500001230023DBB21846BD4680BC704700BF9B
:101E600000000A4080B500AF00BFFFF7E9FF03465E
:101E700083F00103DBB2002BF7D100BF00BF80BDB0
:101E800080B400AF034B9B6803F00C031846BD46BB
:101E900080BC704700000A4080B400AF064B1B684E
:101EA00003F00403002B14BF01230023DBB2184608
:101EB000BD4680BC704700BF5C06002080B400AF08
:101EC000064B1B6803F00803002B14BF01230023FB
:101ED000DBB21846BD4680BC704700BF5C060020E0
:101EE00080B400AF034B5B6803F03F031846BD4668
:101EF00080BC704700000A4080B400AF034B5B68B1
:101F00001B0A9BB21846BD4680BC704700000A40C1
:101F100080B584B000AF78603960174B1B68984774
:101F2000164B5B68FB60FB6823F03F03FB603B687C
:101F3000002B0BDB3B681B0223F07F4323F0FF03E6
:101F40007A68134343F02543FB6005E07A68FB6839
:101F5000134343F02543FB60084AFB685360FFF7D7
:101F60008FFF0346064A1360034B1B68984700BF68
:101F70001037BD4680BD00BF8C00002000000A4025
:101F80005C06002080B500AF4FF0FF310020FFF766
:101F9000BFFF00BF80BD80B500AF4FF0FF3106200E
:101FA000FFF7B6FF00BF80BD80B400AF064B9B6853
:101FB00003F01003002B14BF01230023DBB21846EB
:101FC000BD4680BC704700BF00000A4080B500AF2E
:101FD0004FF0FF310920FFF79BFF00BF80BD80B5A8
:101FE00082B000AF78607B681846FFF711FE0346A9
:101FF000184600F005F8034618460837BD4680BD70
:1020000080B483B000AF7860094B9A687B6803F0B6
:102010000F034FF4803101FA03F31340002B14BF78
:1020200001230023DBB218460C37BD4680BC704745
:1020300000000A4080B582B000AF78600B46FB70AC
:10204000FB78002B01D0042300E0052379681846B3
:10205000FFF75EFF00BF0837BD4680BD80B582B088
:1020600000AF78600B46FB707868FFF7E6FD03462B
:102070001A46FB7819461046FFF7DCFF00BF083709
:10208000BD4680BD80B584B000AF0346FB71002320
:10209000FB601023BB600CE0BB68013BBB60FB79BD
:1020A0001946B868FFF7DAFF074B1B68FA68134355
:1020B000FB60BB68002BEFD1034AFB68136000BFD5
:1020C0001037BD4680BD00BF5C0600202DE9F043FF
:1020D00083B000AF786000F087F802460B4679685D
:1020E00001F03F01C1F12006A1F1200022FA01F424
:1020F00003FA06F6344323FA00F0044323FA01F509
:1021000004F001084FF0000958EA090314BF012345
:102110000023DBB218460C37BD46BDE8F0832DE93D
:10212000F04F85B000AFF860B96000F05DF802468E
:102130000B46F96801F03F01C1F12006A1F1200032
:1021400022FA01F403FA06F6344323FA00F00443BA
:1021500023FA01F5BB68402B28BF402319464FF0F6
:10216000FF324FF0FF33A1F12006C1F1200003FA46
:1021700001F902FA06F649EA060922FA00F049EAEC
:10218000000902FA01F86FEA080A6FEA090B04EA8B
:102190000A033B6005EA0B037B60D7E90023104686
:1021A00019461437BD46BDE8F08FF0B583B000AFD7
:1021B000786000F019F802460B467968C90001F012
:1021C0003801C1F12006A1F1200022FA01F403FA3E
:1021D00006F6344323FA00F0044323FA01F5E3B290
:1021E00018460C37BD46F0BD2DE9B00383B000AFF3
:1021F0000F4B9B697B607B680022184611460C4B95
:102200005B690022984691464FF000024FF00003B0
:102210004346002240EA020441EA030522462B46D7
:10222000104619460C37BD46BDE8B003704700BFE5
:1022300000000A4080B582B000AF78600B46FB70AA
:102240007B6803F03F0319460820FFF761FEFB7827
:10225000002B05D07868FFF739FF0346002B01D02B
:10226000012300E0002318460837BD4680BD2DE954
:10227000F04F87B000AFF860B9601346FB710023E0
:102280007B61FB6803F03F03FB60BB68402B28BF0A
:102290004023BB60FB683B610BE000213869FFF71E
:1022A000C9FF204B1B687A6913437B613B6901338B
:1022B0003B61FA68BB6813443A699A42EDD3194A04
:1022C0007B691360FB79002B20D0B968F868FFF7B1
:1022D00026FF82468B464FF001024FF00003B9689B
:1022E000A1F12006C1F1200003FA01F502FA06F679
:1022F000354322FA00F0054302FA01F414F1FF38E5
:1023000045F1FF39CB4508BFC24501D1012300E0AB
:10231000002303F00103DBB218461C37BD46BDE8BD
:10232000F08F00BF5C06002080B586B000AF7860FB
:102330000B46FB70FFF758FFC7E90201002000F0D1
:102340003FF81E4B1B687B6100233B611CE03A6930
:102350007B689A4209D03B7A1946386900F0B0F898
:10236000164B1B687A6913437B613B6901333B6100
:10237000D7E902014FF000024FF00003020A42EADF
:1023800001620B0AC7E902233B69072BDFD90B4A1D
:102390007B691360FB78002B05D07868FFF705FF99
:1023A0000346FF2B01D1012300E0002303F00103CA
:1023B000DBB218461837BD4680BD00BF5C06002062
:1023C00080B582B000AF0346FB714FF0FF310B20A8
:1023D000FFF79EFDFB79002B09D0FFF705FF0246B2
:1023E0000B46B3F1FF3F08BFB2F1FF3F01D101231C
:1023F00000E0002303F00103DBB218460837BD46B6
:1024000080BD80B582B000AF78600B46FB70FB7872
:1024100083F00103DBB2002B06D07B6803F03F039F
:1024200019460720FFF774FD00BF0837BD4680BD81
:10243000B0B586B000AFF860B960C7E900230023EB
:102440007B61FB6803F03F03FB60BB68402B28BF48
:102450004023BB60FB683B6122E0D7E9002302F028
:102460000104002554EA050314BF01230023DBB255
:1024700019463869FFF7C5FF104B1B687A6913438B
:102480007B613B6901333B61D7E900014FF00002FA
:102490004FF00003420842EAC1724B08C7E900232B
:1024A000FA68BB6813443A699A42D6D3034A7B69F7
:1024B000136000BF1837BD46B0BD00BF5C060020EA
:1024C00080B582B000AF78600B46FB707B6803F08C
:1024D0000702FB78DB00134319460A20FFF718FDBB
:1024E00000BF0837BD4680BD80B584B000AFC7E9E6
:1024F00000010023FB600023BB6018E03B78194615
:10250000B868FFF7DDFF0F4B1B68FA681343FB60E9
:10251000BB680133BB60D7E900014FF000024FF008
:102520000003020A42EA01620B0AC7E90023BB6802
:10253000072BE3D9034AFB68136000BF1037BD4681
:1025400080BD00BF5C06002080B582B000AF78601F
:102550000B46FB70FB78002B04D000217868FFF756
:1025600069FE03E000217868FFF74BFF00BF0837E2
:10257000BD4680BDB0B586B000AFF860B960C7E9B0
:10258000002300237B61FB6803F03F03FB60BB6813
:10259000402B28BF4023BB60FB683B6122E0D7E9AA
:1025A000002302F00104002554EA050314BF0123AF
:1025B0000023DBB219463869FFF7C6FF104B1B68D2
:1025C0007A6913437B613B6901333B61D7E90001C1
:1025D0004FF000024FF00003420842EAC1724B087C
:1025E000C7E90023FA68BB6813443A699A42D6D314
:1025F000034A7B69136000BF1837BD46B0BD00BFFA
:102600005C06002080B584B000AF78600B46FB709C
:10261000FB78002B06D0FF2B09D100217868FFF74B
:1026200083FE17E000217868FFF74AFF12E00021DF
:102630007868FFF779FE094B1B68FB60FB78194649
:102640007868FFF73DFF054B1A68FB681343034AA0
:10265000136000BF00BF1037BD4680BD5C06002080
:1026600080B584B000AFC7E90001D7E90023134368
:102670000BD0D7E90023B3F1FF3F08BFB2F1FF3F12
:102680000AD10020FFF79CFE17E04FF000004FF04A
:102690000001FFF729FF10E00020FFF791FE094B32
:1026A0001B68FB60D7E90001FFF71EFF054B1A68A6
:1026B000FB681343034A136000BF00BF1037BD46D9
:1026C00080BD00BF5C06002080B500AF4FF0FF3139
:1026D0000320FFF71DFC00BF80BD80B400AF064B98
:1026E0009B6803F02003002B14BF01230023DBB2FF
:1026F0001846BD4680BC704700000A4080B582B0D5
:1027000000AF786079680C20FFF702FCFFF7E5FF67
:10271000034618460837BD4680BD80B584B000AF7B
:1027200078600B46FB700123FB7379680220FFF78A
:10273000EFFBFB78002B0ED0094B1B68BB604FF002
:10274000FF30FFF7DBFF0346FB73054B1A68BB68DE
:102750001343034A1360FB7B18461037BD4680BD08
:102760005C06002080B586B000AF0346FB710123F4
:10277000FB7500233B61FFF73BFAF86016E0FB684E
:10278000013BFB60FB68FA7911461846FFF7C5FF6D
:1027900003461A46FB7D1340002B14BF0123002380
:1027A000FB75084B1B683A6913433B61FB68002BC0
:1027B000E5D1044A3B691360FB7D18461837BD46D6
:1027C00080BD00BF5C06002080B582B000AF78609D
:1027D00079680120FFF79CFB00BF0837BD4680BD2C
:1027E00080B500AF4FF0FF310F20FFF791FBFFF7EF
:1027F00074FF0346184680BD80B582B000AF034623
:10280000FB714FF0FF310E20FFF782FBFB79002BAD
:1028100004D0FFF7E5FF0346002B01D0012300E0C1
:10282000002318460837BD4680BD80B500AF4FF085
:10283000FF310D20FFF76CFB00BF80BD80B584B079
:1028400000AFF8607A601A460B46FB721346BB7203
:10285000FB7A9BB21A461202134499B2BB7A7A6889
:10286000F86800F005F8034618461037BD4680BDED
:1028700080B584B000AFF8607A601A460B467B8161
:1028800013467B727A8913461B0499187B7A7A68FF
:10289000F86800F005F8034618461037BD4680BDBD
:1028A0002DE9B04386B002AFF860B9607A60FB7082
:1028B000BB68002298469146012303FB09F20123DD
:1028C00003FB08F313440122A8FB02452B441D46D9
:1028D000FB7801937B68009322462B46F86800F052
:1028E00006F8034618461037BD46BDE8B08380B5EC
:1028F0009AB000AFF860C7E900234FF000024FF034
:102900000003C7E9122300237B66FFF733F9034670
:10291000BB65FB687B657B6D013B03F007033B6692
:1029200017E0397807F148023B6E13440A461A70E3
:10293000D7E900014FF000024FF00003020A42EA1B
:1029400001620B0AC7E900233B6E013B03F007035A
:102950003B66D7E900231343E3D17A6D3B6F134401
:102960007B64BA6D7B6D9A4206D87B6DB3F5000F20
:1029700002D24FF400037B657B6C924A934202D9EA
:10298000904B7B6409E07B6CB3F5000F05D87A6C43
:10299000BB6D9A4201D9BB6D7B647B6C23F0010354
:1029A000FB63FB6B23F003037B637B6B23F0070369
:1029B000FB621EE1FFF788FE834B1B687A6E1343B0
:1029C0007B66FB6A1A467B6D23F4FF7323F00103D9
:1029D00003F500739A4201D2FB6A06E07B6D23F493
:1029E000FF7323F0010303F500737B627B6D23F417
:1029F000FF7222F001027B6C23F4FF7323F00103CA
:102A00009A422CBF0123002387F85F30D7E91223B5
:102A1000C7E906237B6DC3F30803002B50D07B6D01
:102A200023F4FF7323F001037B610CE07A697B6977
:102A300012681A607B691A1D7B69043312681A6078
:102A40007B6908337B617B697A6D22F007029342D0
:102A5000ECD37B6D03F00703002B31D000233B66E2
:102A60000DE07B695A1C7A611B78D9B207F1180214
:102A70003B6E13440A461A703B6E01333B667B6D16
:102A800003F007033A6E9A42EBD37B6D23F0070302
:102A90007B657A6DFB6A9A4212D2796D4FF0FF32F4
:102AA0004FF0FF33C1E90023796D01F108037B6525
:102AB000D7E90623C1E90023D7E91223C7E9062392
:102AC0007A6A7B6DD31ADB103B6611E0796D4FF0AB
:102AD000FF324FF0FF33C1E90023796D01F10803A4
:102AE0007B65D7E91223C1E900233B6E013B3B66BE
:102AF0003B6E002BEAD197F85F30002B3ED07B6C09
:102B00007B617B6C03F00703002B32D07B6C03F0FE
:102B100007033B660DE07B695A1C7A611B78D9B2CA
:102B200007F118023B6E13440A461A703B6E0133DC
:102B30003B663B6E072BEED9796D4FF0FF324FF0BD
:102B4000FF33C1E90023796D01F108037B65D7E903
:102B50000623C1E900230CE07A697B6912681A60D8
:102B60007B691A1D7B69043312681A607B6908331C
:102B70007B617B69C3F30803002BEDD17B6DB3F55B
:102B8000000F23D897F87430002B09D000214FF0A4
:102B9000FF30FFF7C2FD0C4B1B687A6E13437B6658
:102BA0004FF0FF30FFF710FE074B1B687A6E1343A0
:102BB0007B667A6DBB6D9A421BD34FF400037B6535
:102BC00017E000BF000280005C06002097F8743018
:102BD000002B07D00020FFF70FFE0C4B1B687A6E0E
:102BE00013437B66FFF721FE084B1B687A6E134385
:102BF0007B667A6D7B6C9A42FFF4DCAE034A7B6E97
:102C00001360FB6818466837BD4680BD5C0600202F
:102C100080B58CB000AFF860B9607A60FB700023BB
:102C2000BB62FB683B62BB68FB61FB68B3F5000FEE
:102C30002CBF01230023FB763B6A23F4FF7323F0B0
:102C400001037B6271E0FFF73FFD3D4B1B68BA6AF1
:102C50001343BB620023FB8540E07B6AD3E900237A
:102C6000C7E90423002387F82D3020E07B68002B80
:102C700015D07A6A3B6A9A4211D1FB695A1CFA61F3
:102C800097F82D20197802F130033B440A4603F8E7
:102C9000202C3B6A01333B627B68013B7B607B6A93
:102CA00001337B6297F82D30013387F82D3097F888
:102CB0002D30072BDAD97B6A083B19464FF0FF32DB
:102CC0004FF0FF33C1E900237B6A083B1946D7E97F
:102CD0000423C1E90023FB8D0833FB85FB8DB3F58D
:102CE000007FBAD3FB78002B10D0FB7E002B03D0E3
:102CF0000020FFF781FD04E000214FF0FF30FFF7D7
:102D00000CFD0F4B1B68BA6A1343BB62FB7E002BA2
:102D100002D0FFF78AFD03E04FF0FF30FFF754FDCC
:102D2000074B1B68BA6A1343BB627B68002B8AD1CE
:102D3000034ABB6A1360FB6818463037BD4680BD46
:102D40005C06002080B500AF084801F071FB074B1E
:102D500001229A6000BF00F021F8034603F001034E
:102D6000002BF8D000BF00BF80BD00BF00040A40A8
:102D700080B500AF084B01221A62074B00229A600F
:102D800000BF00F00BF80346002BFAD1024801F017
:102D9000B8FD00BF80BD00BF00040A4080B400AF92
:102DA000024BDB681846BD4680BC704700040A40F1
:102DB00080B400AF034B01221A6200BFBD4680BC45
:102DC000704700BF00040A4080B582B000AF786051
:102DD000094B00229A6000BFFFF7E0FF0346002B7B
:102DE000FAD1054A7B685362034B01229A6000BF07
:102DF0000837BD4680BD00BF00040A4080B483B0E0
:102E000000AF7860034A7B68936200BF0C37BD4611
:102E100080BC704700040A4080B400AF034B01221D
:102E2000DA6200BFBD4680BC704700BF00040A40A4
:102E300080B400AF034B0022DA6200BFBD4680BC05
:102E4000704700BF00040A4080B400AF034B01226A
:102E50001A6300BFBD4680BC704700BF00040A4033
:102E600080B400AF024B5B6B1846BD4680BC704718
:102E700000040A4080B400AF034BD3F8FC3018467E
:102E8000BD4680BC704700BF00040A4080B483B0D8
:102E900000AFEFF310837B607B68002B0CBF012336
:102EA0000023DBB23B6072B600BFBFF35F8F00BF91
:102EB000044B00221A703B6818460C37BD4680BC94
:102EC000704700BF9000002080B483B000AF7860EE
:102ED0007B68002B14BF01230023DBB218460C379C
:102EE000BD4680BC704780B582B000AF786078681E
:102EF000FFF7EAFF0346002B07D0064B01221A70AA
:102F0000BFF35F8F00BF62B600BF00BF0837BD468A
:102F100080BD00BF9000002080B58AB000AFF8608F
:102F2000B9607A6000237B62FB68DB697B627B6A45
:102F300023F003037B62BB6803F003037A6A134345
:102F40007B627B6A43F008037B627B6A43F0040385
:102F50007B62FFF79BFF3862144B9B68FB61134B4E
:102F60001B68BB61114B5B687B61104A7B685360D7
:102F70000E4B05221A60796AF86803F0A1FE034639
:102F8000FB740A4B00221A60084A7B695360074AA7
:102F9000FB699360054ABB691360386AFFF7A3FFBA
:102FA000FB7C18462837BD4680BD00BF10E000E01E
:102FB00080B485B000AF786039600023FB607B6827
:102FC000DB69FB60FB6823F00303FB603B6803F0F5
:102FD0000303FA681343FB60FB6843F00803FB60DC
:102FE000FB6843F00403FB60054B064A9A617B686B
:102FF000FA68DA6100BF1437BD4680BC704700BF75
:1030000000000F401C0000AA80B485B000AF7860BB
:103010007B68DB6943F08073FB60054B054A9A616E
:103020007B68FA68DA6100BF1437BD4680BC704720
:1030300000000F401C0000AA80B485B000AF78608B
:103040007B68DB6923F08073FB60054B054A9A615E
:103050007B68FA68DA6100BF1437BD4680BC7047F0
:1030600000000F401C0000AA80B485B000AF78605B
:1030700039607B68DB69FB603B68002B04D1FB682F
:1030800023F48033FB6003E0FB6843F48033FB6090
:10309000054B064A9A617B68FA68DA6100BF14370B
:1030A000BD4680BC704700BF00000F401C0000AA56
:1030B00080B483B000AF78607B689B6A18460C3799
:1030C000BD4680BC704780B483B000AF7860396083
:1030D0007B68DA6A3B681A437B68DA6200BF0C37A8
:1030E000BD4680BC704780B483B000AF7860396063
:1030F0007B68DA6A3B68DB431A407B68DA6200BFB0
:103100000C37BD4680BC704780B483B000AF786098
:1031100039607B681A6B3B681A437B681A6300BF8F
:103120000C37BD4680BC704780B483B000AF786078
:1031300039607B681A6B3B68DB431A407B681A6313
:1031400000BF0C37BD4680BC704780B483B000AF71
:1031500078607B685B6B43F001027B685A6300BF59
:103160000C37BD4680BC704780B483B000AF786038
:103170007B685B6B23F001027B685A6300BF0C37EE
:10318000BD4680BC704780B483B000AF78603960C2
:103190007B683A681A6000BF0C37BD4680BC704738
:1031A00080B483B000AF786039607B683A685A6059
:1031B00000BF0C37BD4680BC704780B483B000AF01
:1031C00078607B689B6818460C37BD4680BC7047AA
:1031D00080B483B000AF78607B68DB6818460C373A
:1031E000BD4680BC704780B483B000AF7860396062
:1031F0007B683A681A6100BF0C37BD4680BC7047D7
:1032000080B483B000AF78607B685B6918460C3788
:10321000BD4680BC704780B483B000AF78607B68E7
:10322000D3F8FC3018460C37BD4680BC704780B4DC
:1032300085B000AF786039607B68DB69FB60FB6854
:1032400023F48073FB60FB6823F40073FB60FB686E
:1032500023F44053FB60434B434A9A613B68012B84
:1032600009D17B68FA68DA61404B1B693F4A23F059
:103270000403136160E03B68022B0DD1FB6843F44B
:103280008053FB607B68FA68DA61384B1B69374A08
:1032900023F0040313614FE03B68032B0DD1FB685F
:1032A00043F40053FB607B68FA68DA612F4B1B69BB
:1032B0002E4A23F0040313613EE03B68042B0DD13A
:1032C000FB6843F44053FB607B68FA68DA61274B84
:1032D0001B69264A23F0040313612DE03B68052B8C
:1032E00009D17B68FA68DA61204B1B691F4A43F0F9
:1032F0000403136120E03B68062B0DD1FB6843F407
:103300000073FB607B68FA68DA61184B1B69174A27
:1033100043F0040313610FE03B68072B1DD1FB68EA
:1033200043F48073FB607B68FA68DA610F4B1B69BA
:103330000E4A43F00403136100BF0D4B5B6903F4B5
:103340008063002BF9D030BF00BF0A4B01221A70F6
:10335000BFF35F8F00BF62B600E000BF1437BD4609
:1033600080BC704700000F401C0000AA00ED00E088
:1033700000040F409000002080B483B000AF0346EB
:10338000FB71FB79062B21D801A252F823F000BF74
:10339000AD330000B1330000B7330000BD3300008F
:1033A000C1330000C5330000C93300000A4B0EE0F2
:1033B0004FF400430BE04FF4004308E0074B06E0F6
:1033C000074B04E0074B02E0074B00E000231846E0
:1033D0000C37BD4680BC7047001BB70000B4C40466
:1033E00000093D0040420F0038C1010080B500AF28
:1033F0000020FFF7C1FF03469B00184680BD80B543
:1034000000AFFFF7F3FF0346184680BD80B584B0D8
:1034100000AF78601A4B1B6803F40033002B0ED109
:10342000FFF7EDFF03465B0003F5E03303F23713CC
:10343000DB08144AA2FB03235B0AFB6008E0FFF7EA
:10344000DEFF03465B0003F5FF437F33DB0BFB60CE
:10345000FB68DB08FB6000BFFB685A1EFA60002BAC
:10346000FAD1074A7B6843F0AA431360044A7B6899
:1034700043F02A43136000BF1037BD4680BD00BF34
:10348000000C0F40AB381E0980B483B000AF7860E9
:103490007B6800221A607B6800225A607B680022E9
:1034A0009A607B6810221A737B6800225A737B68CB
:1034B00001229A737B680122DA737B6800221A74F6
:1034C00000BF0C37BD4680BC704780B584B000AFEC
:1034D000F860B9607A60FB68BA681A60FB687A685D
:1034E0005A60B86800F0A4FFBB681B6803F00803CB
:1034F000002B01D0002360E0BB681B6803F00103D0
:10350000002B0DD0BB681B6823F001031846FFF7A2
:103510007DFF00BFBB681B6803F00103002BF9D1DE
:10352000BB681B6803F48033002B0DD0BB681B689D
:1035300023F480331846FFF769FF00BFBB681B68A0
:1035400003F48033002BF9D17B681A687B685B68D1
:103550001A437B689B681A437B681B7B1B0203F43E
:10356000F8531A437B685B7B9B0403F4F803134313
:103570007A68927B002A01D0802200E00022134367
:103580007A68D27B002A01D0022200E00022134395
:103590001846FFF73BFFBB681B6843F480331846AF
:1035A000FFF734FF00BFBB681B6803F48033002BB8
:1035B000F9D0B86801F0A5F9012318461037BD46C7
:1035C00080BD80B584B000AF78607B681B68FB600D
:1035D0007B685B68BB60F86800F02AFFFB681B68CB
:1035E000BA68127C002A01D0082200E000221343AE
:1035F00043F001031846FFF709FF00BF054B1B68A6
:1036000003F00103012BF9D100BF00BF1037BD4605
:1036100080BD00BF000C0F4080B584B000AF786063
:103620007B681B68FB60FB681B6823F0010318467E
:10363000FFF7ECFE00BFFB681B6803F00103002BE3
:10364000F9D1F86801F05DF900BF1037BD4680BDC3
:1036500080B485B000AF78607B681B68FB6000BFFA
:10366000FB689B6803F00203022BF9D1FB68054A53
:103670005A60FB68044A5A6000BF1437BD4680BCDC
:10368000704700BF01000055010000AA80B588B056
:1036900000AF3B1D1846FFF7F7FE07233B740123DD
:1036A000FB743A1D07F118030E491846FFF70DFF8A
:1036B000034683F00103DBB2002B01D000230DE0B1
:1036C00072B600BFBFF35F8F00BF074B00221A70B6
:1036D00007F118031846FFF774FFFEE71846203776
:1036E000BD4680BD000C0F409000002080B485B026
:1036F00000AF7860104BFB60104B1B68002B02D1B1
:103700000E4B0F4A1A600D4B1B68BB60BA687B6892
:103710001344FA689A4202DA4FF0FF3306E0074B8F
:103720001A687B681344054A1360BB68184614374F
:10373000BD4680BC704700BFE049002070060020F5
:10374000E049002080B483B000AF786039604FF06A
:10375000FF3318460C37BD4680BC704780B483B039
:1037600000AF78604FF0FF3318460C37BD4680BC81
:10377000704780B483B000AF786039603B684FF425
:1037800000525A60002318460C37BD4680BC704773
:1037900080B483B000AF7860012318460C37BD4673
:1037A00080BC704780B485B000AFF860B9607A60C3
:1037B000002318461437BD4680BC704780B483B0E0
:1037C00000AF786000BEFEE780B483B000AF7860E1
:1037D000396000BF0C37BD4680BC704780B400AF75
:1037E0004FF0FF331846BD4680BC704780B483B0AD
:1037F00000AFEFF310837B607B68002B0CBF0123CD
:103800000023DBB23B6072B600BFBFF35F8F00BF27
:10381000044B00221A703B6818460C37BD4680BC2A
:10382000704700BF9000002080B483B000AF786084
:103830007B68002B14BF01230023DBB218460C3732
:10384000BD4680BC704780B582B000AF78607868B4
:10385000FFF7EAFF0346002B07D0064B01221A7040
:10386000BFF35F8F00BF62B600BF00BF0837BD4621
:1038700080BD00BF9000002080B582B000AF03463D
:10388000FB71FB79062B23D801A252F823F000BF6D
:10389000AD380000B3380000B9380000BF38000070
:1038A000C5380000CB380000D138000001F0B0FD71
:1038B0000FE001F0E5FD0CE001F01EFE09E001F073
:1038C0008FFE06E001F0C6FE03E001F04FFE00E0CF
:1038D00000BF00BF0837BD4680BD80B483B000AFD5
:1038E0000346FB71FB79062B4ED801A252F823F058
:1038F0000D39000021390000353900004939000038
:103900005D3900007139000085390000214B5B6989
:1039100003F00103002B14BF01230023DBB234E0CA
:103920001D4B5B6903F00103002B14BF012300232F
:10393000DBB22AE0184B5B6A03F00103002B14BFD3
:1039400001230023DBB220E0124B1B6D03F00103C7
:10395000002B14BF01230023DBB216E00D4B9B6C40
:1039600003F00103002B14BF01230023DBB20CE0A2
:10397000094B9B6D03F00103002B14BF01230023AF
:10398000DBB202E0012300E0002318460C37BD46FD
:1039900080BC704700080E4000040F4080B483B024
:1039A00000AF0346FB71FB79062B21D801A252F828
:1039B00023F000BFD1390000D5390000DB39000009
:1039C000E1390000E5390000E9390000ED39000077
:1039D0000A4B0EE04FF400430BE04FF4004308E0C5
:1039E000074B06E0074B04E0074B02E0074B00E003
:1039F000002318460C37BD4680BC7047001BB7003B
:103A000000B4C40400093D0040420F0038C1010069
:103A100080B582B000AF0346FB7100BFFB7918464A
:103A2000FFF75BFF034683F00103DBB2002BF5D108
:103A300000BF00BF0837BD4680BD80B483B000AF73
:103A4000786039607B681A683B680333012101FAAA
:103A500003F31A437B681A6000BF0C37BD4680BC75
:103A6000704780B586B000AFF8607A603B600B4667
:103A7000FB72FB7A1846FFF791FF02463B6802FB98
:103A800003F37B617A697B68B2FBF3F37B61FB68CC
:103A900000221A607B69164A93420CD83B68082BB7
:103AA00009D83B685B003B607B695B007B6101215F
:103AB000F868FFF7C2FF7B690E4A934203D90021E1
:103AC000F868FFF7BAFFFB681A683B68013B190406
:103AD0007B681B021943FB7A5B000B43134343F0E3
:103AE0007C52FB681A6000BF1837BD4680BD00BF1E
:103AF000FFB3C4047FFE210A80B483B000AF7860B6
:103B0000084B5A697B680633012101FA03F313401D
:103B1000002B14BF01230023DBB218460C37BD462F
:103B200080BC704700080E4080B582B000AF0346ED
:103B3000FB71FB79002B0FD10020FFF7CEFE03466F
:103B400083F00103DBB2002B08D00020FFF794FEC6
:103B50000020FFF75DFF01E000BF00E000BF00BFF5
:103B60000837BD4680BD80B584B000AF7860786806
:103B7000FFF7C2FF0346002B1FD17B68002B0AD141
:103B80000020FFF7D1FF07F10C00042301220021E0
:103B9000FFF767FF00E000BF07F10C0379681846E4
:103BA00001F002FE00BF7868FFF7A6FF034683F02E
:103BB0000103DBB2002BF6D100E000BF1037BD4699
:103BC00080BD80B483B000AF786039607B6800222C
:103BD0001A6000BF0C37BD4680BC704780B483B00C
:103BE00000AF78600B46FB707B681B6823F4F852CB
:103BF000FB781B0203F4F8531A437B681A6000BF7A
:103C00000C37BD4680BC704780B483B000AF78608D
:103C100039607B681A684FF6FD7313407A68136049
:103C20003B68012B0FD97B681B6843F002027B685D
:103C30001A607B681A683B6801335B08013B1B0410
:103C40001A437B681A6000BF0C37BD4680BC7047C2
:103C500080B483B000AF786039607B681B68064928
:103C600043F001023B681C339B000B445A6000BFC9
:103C70000C37BD4680BC704700080E4080B483B04E
:103C800000AF7860054A7B681C339B001344002218
:103C90005A6000BF0C37BD4680BC704700080E401C
:103CA00080B582B000AF0346FB71FB79102B00F2A8
:103CB000898001A252F823F0C53D0000FD3C0000C0
:103CC000C53D00009D3D00001D3D00003D3D000044
:103CD0005D3D0000C53D0000C53D0000C53D000044
:103CE000C53D0000C53D0000C53D00007D3D000014
:103CF000C53D0000FD3C0000BD3D00000120FFF778
:103D0000ECFD034683F00103DBB2002B5CD0012005
:103D1000FFF7B2FD0120FFF77BFE55E00320FFF720
:103D2000DCFD034683F00103DBB2002B4ED0032001
:103D3000FFF7A2FD0320FFF76BFE47E00420FFF72B
:103D4000CCFD034683F00103DBB2002B40D00420FE
:103D5000FFF792FD0420FFF75BFE39E00520FFF737
:103D6000BCFD034683F00103DBB2002B32D00520FB
:103D7000FFF782FD0520FFF74BFE2BE00220FFF747
:103D8000ACFD034683F00103DBB2002B24D00220FC
:103D9000FFF772FD0220FFF73BFE1DE00020FFF75A
:103DA0009CFD034683F00103DBB2002B16D00020FC
:103DB000FFF762FD0020FFF72BFE0FE00020FFF76A
:103DC000D2FE0CE000BF0AE000BF08E000BF06E042
:103DD00000BF04E000BF02E000BF00E000BF00BF82
:103DE0000837BD4680BD80B586B000AFF8600B4691
:103DF0007A60FB7207F11403F9681846FFF7E1FED9
:103E0000FB7A1846FFF74CFFFA7A07F114031146C4
:103E10001846FFF7E3FE07F1140379681846FFF729
:103E2000F3FE07F11403F9681846FFF711FF00BF0E
:103E30001837BD4680BD80B500AF0020FFF7AEFD4E
:103E400003469B00184680BD80B500AFFFF7F3FF27
:103E50000346184680BD80B500AFFFF7ECFF034670
:103E6000184680BD80B500AFFFF7E5FF0346184652
:103E700080BD80B500AFFFF7DEFF0346184680BD6A
:103E800080B500AFFFF7D7FF0346184680BD80B569
:103E900082B000AF78607968012000F077F800BF49
:103EA0000837BD4680BD80B582B000AF78607968C4
:103EB000012000F09BF800BF0837BD4680BD80B5EB
:103EC00082B000AF78607968042000F05FF800BF2E
:103ED0000837BD4680BD80B582B000AF7860796894
:103EE000042000F083F800BF0837BD4680BD80B5D0
:103EF00082B000AF78607968052000F047F800BF15
:103F00000837BD4680BD80B582B000AF7860796863
:103F1000052000F06BF800BF0837BD4680BD80B4B7
:103F200085B000AF7860094B1B6CFB60FA687B685A
:103F30001343FB60054B064A9A65044AFB68136409
:103F400000BF1437BD4680BC704700BF00000E4064
:103F5000400000AA80B485B000AF7860094B1B6CAC
:103F6000FB607B68DB43FA681340FB60054B064A45
:103F70009A65044AFB68136400BF1437BD4680BCD1
:103F8000704700BF00000E40400000AA80B584B01A
:103F900000AF78603960FFF729FCF8607B689A0011
:103FA000104B13441B68BB6001223B6802FA03F309
:103FB000BA681343BB607B6808339B0003F47F73CC
:103FC000094A43F02A4393657B689A00054B1344E2
:103FD000BA681A60F868FFF736FC00BF1037BD46B4
:103FE00080BD00BF20000E4000000E4080B584B0B0
:103FF00000AF78603960FFF7F9FBF8607B689A00E2
:10400000104B13441B68BB6001223B6802FA03F3A8
:10401000DB43BA681340BB607B6808339B0003F442
:104020007F73094A43F02A4393657B689A00054BE6
:104030001344BA681A60F868FFF705FC00BF103730
:10404000BD4680BD20000E4000000E4080B584B00B
:1040500000AF7860FFF7CAFBF860094B9B6A002B42
:1040600002D10520FFF713FFF868FFF7ECFB796832
:104070000220FFF78BFF00BF1037BD4680BD00BF99
:1040800000000E4080B584B000AF786079680220EF
:10409000FFF7ACFFFFF7AAFBF860074B9B6A002B0A
:1040A00002D10520FFF7FFFEF868FFF7CCFB00BF49
:1040B0001037BD4680BD00BF00000E4080B584B003
:1040C00000AF7860FFF792FBF860094BDB6A002BCA
:1040D00002D10620FFF7DBFEF868FFF7B4FB796832
:1040E0000320FFF753FF00BF1037BD4680BD00BF60
:1040F00000000E4080B584B000AF7860796803207E
:10410000FFF774FFFFF772FBF860074BDB6A002BC9
:1041100002D10620FFF7C7FEF868FFF794FB00BF47
:104120001037BD4680BD00BF00000E4080B582B094
:1041300000AF78607B68964A934200F02081944AF1
:10414000934200F22081934A934200F01881914AF1
:10415000934200F21881904A934200F010818E4AF7
:10416000934200F210818D4A934200F008818B4AFD
:10417000934200F208818A4A934200F00081884A03
:10418000934200F20081874A934200F0F880854A0A
:10419000934200F2F880844A934200F0EC80824A15
:1041A000934200F2F080814A934200F0E4807F4A1B
:1041B000934200F2E8807E4A934200F0DC807C4A21
:1041C000934200F2E0807B4A934200F0D480794A27
:1041D000934200F2D880784A934200F0CC80764A2D
:1041E000934200F2D080754A934200F0C080734A37
:1041F000934200F2C880724A934200F0B880704A3D
:10420000934200F2C0806F4A934200F0B0806D4A42
:10421000934200F2B8806C4A934200F0A8806A4A48
:10422000934200F2B080694A934200F0A080674A4E
:10423000934200F2A880664A934200F09880644A54
:10424000934200F2A080634A934200F09080614A5A
:10425000934200F29880604A934200F084805E4A64
:10426000934200F290805D4A93427CD05B4A934235
:1042700000F289805A4A934275D0594A934200F21B
:104280008280584A93426ED0564A93427BD8564A0F
:10429000934268D0544A934275D8544A934262D0AC
:1042A000524A93426FD8524A93425CD0504A93424A
:1042B00069D8504A934256D04E4A934263D84E4AE8
:1042C000934250D04C4A93425DD84C4A93424AD0D4
:1042D0004A4A934257D84A4A934244D0484A934262
:1042E00051D8484A93423ED0464A93424BD8464A18
:1042F000934238D0444A934245D8444A934232D0FC
:10430000424A93423FD8424A93422CD0404A934279
:1043100039D8404A934226D03E4A934233D83E4A47
:10432000934220D03C4A93422DD83C4A93421AD023
:104330003A4A934227D83A4A934214D0384A934291
:1043400021D8384A93420ED0364A93421BD8364A77
:10435000934208D0344A934215D8B3F1402F02D08B
:10436000324A93420FD1FFF776FD03460CE0FFF788
:1043700079FD034608E0FFF77CFD034604E0FFF704
:104380007FFD034600E0002318460837BD4680BD88
:1043900000140F4000100F40000C0F4000080F40A9
:1043A00000040F4000000F4000100E40000C0E40B3
:1043B00000080E4000040E4000000E4000600A405D
:1043C00000500A4000400A4000200A4000100A4005
:1043D00000040A4000000A400000084000C00740F6
:1043E000008007400000074000C0064000800640F3
:1043F00000400640000006400000044000C00340AA
:10440000008003400000034000C0024000800240E2
:104410000040024000C4014000C00140008401404F
:104420000080014000400140000001400080004049
:1044300080B582B000AF78607B68A84A934200F0F4
:104440005882A64A934200F25882A54A934200F04D
:104450004C82A34A934200F25082A24A934200F057
:104460004082A04A934200F248829F4A934200F061
:1044700034829D4A934200F240829C4A934200F06B
:1044800028829A4A934200F23882994A934200F075
:104490001C82974A934200F23082964A934200F07F
:1044A0001082944A934200F22882934A934200F089
:1044B0000482914A934200F22082904A934200F093
:1044C000F8818E4A934200F218828D4A934200F09E
:1044D000EC818B4A934200F210828A4A934200F0A8
:1044E000E081884A934200F20882874A934200F0B2
:1044F000E980854A934200F20082844A934200F0A8
:10450000CC81824A934200F2F881814A934200F0C2
:10451000BD817F4A934200F2F0817E4A934200F0CF
:10452000AE817C4A934200F2E8817B4A934200F0DC
:104530009F81794A934200F2E081784A934200F0E9
:104540009381764A934200F2D881754A934200F0F3
:104550008481734A934200F2D081724A934200F000
:104560007581704A934200F2C8816F4A934200F00D
:1045700069816D4A934200F2C0816C4A934200F017
:104580005D816A4A934200F2B881694A934200F021
:104590005181674A934200F2B081664A934200F02B
:1045A0004581644A934200F2A881634A934200F035
:1045B0003981614A934200F2A081604A934200F03F
:1045C0002D815E4A934200F298815D4A934200F049
:1045D00021815B4A934200F290815A4A934200F053
:1045E0001581584A934200F28881574A934200F05D
:1045F0000981554A934200F28081544A934200F067
:10460000FD80524A934200F27881514A934200F071
:10461000F1804F4A934200F270814E4A934200F07B
:10462000E2804C4A934200F268814B4A934200F088
:10463000D380494A934200F26081484A934200F095
:10464000C480464A934200F25881454A934200F0A2
:10465000B580434A934200F25081424A934200F0AF
:10466000A980404A934200F248813F4A934200F0B9
:104670009D803D4A934200F240813C4A934200F0C3
:1046800091803A4A934200F23881394A934200F0CD
:104690008580374A934200F23081364A934276D081
:1046A000344A934200F22981334A934268D0324A15
:1046B000934200F22281B3F1402F07D02F4A934258
:1046C00008D01AE10920FFF7E2FB17E10020FFF70D
:1046D000BDFC13E10120FFF7B9FC0FE100140F400E
:1046E00000100F40000C0F4000080F4000040F4066
:1046F00000000F4000100E40000C0E4000080E405D
:1047000000040E4000000E4000000B4000600A4014
:1047100000500A4000400A4000200A4000100A40B1
:1047200000040A4000000A400000084000C00740A2
:10473000008007400000074000C00640008006409F
:1047400000400640000006400000044000C0034056
:10475000008003400000034000C00240008002408F
:104760000040024000C4014000C0014000840140FC
:1047700000800140004001400000014000800040F6
:104780000220FFF763FC5520FFF7C9FBB6E00320CA
:10479000FFF75CFC5520FFF7C2FBAFE00420FFF7FA
:1047A00055FCABE00520FFF751FCA7E00620FFF722
:1047B0004DFCA3E00720FFF749FC9FE00820FFF72E
:1047C00045FC0420FFF7ABFB98E00920FFF73EFC17
:1047D0000420FFF7A4FB91E00A20FFF737FC042038
:1047E000FFF79DFB8AE00B20FFF730FC0420FFF76A
:1047F00096FB83E00C20FFF729FC7FE00D20FFF7FC
:1048000025FC7BE00E20FFF721FC77E00F20FFF76F
:104810001DFC73E01020FFF719FC6FE01120FFF77B
:1048200015FC6BE01220FFF711FC67E01320FFF787
:104830000DFC63E01520FFF709FC5FE01620FFF791
:1048400005FC5BE01720FFF701FC57E00120FFF7B4
:104850001EFB0020FFF732FC50E00220FFF717FBA1
:104860000120FFF72BFC49E00220FFF727FC45E081
:104870000020FFF70CFB0320FFF720FC3EE00420A4
:10488000FFF705FB0420FFF719FC37E00320FFF7D3
:10489000FEFA0520FFF712FC30E00620FFF70EFCC1
:1048A0002CE00020FFF70BFB28E00120FFF707FBBF
:1048B00024E00220FFF703FB20E00320FFF7FFFACC
:1048C0001CE00420FFF7FBFA18E00020FFF70FFBC5
:1048D00014E00120FFF70BFB10E00220FFF707FBBD
:1048E0000CE00320FFF703FB08E00420FFF7FFFACA
:1048F00004E00520FFF7FBFA00E000BF0837BD46E3
:1049000080BD80B582B000AF78607B68A74A9342D3
:1049100000F04282A54A934200F24D82A44A93429B
:1049200000F03682A24A934200F24582A14A9342A5
:1049300000F02A829F4A934200F23D829E4A9342AF
:1049400000F01E829C4A934200F235829B4A9342B9
:1049500000F01282994A934200F22D82984A9342C3
:1049600000F00682964A934200F22582954A9342CD
:1049700000F0FA81934A934200F21D82924A9342D8
:1049800000F0EE81904A934200F215828F4A9342E2
:1049900000F0E2818D4A934200F20D828C4A9342EC
:1049A00000F0D6818A4A934200F20582894A9342F6
:1049B00000F0CA81874A934200F2FD81864A934201
:1049C00000F0E880844A934200F2F581834A9342E2
:1049D00000F0B681814A934200F2ED81804A934211
:1049E00000F0A7817E4A934200F2E5817D4A93421E
:1049F00000F098817B4A934200F2DD817A4A93422B
:104A000000F08981784A934200F2D581774A934237
:104A100000F07D81754A934200F2CD81744A934241
:104A200000F06E81724A934200F2C581714A93424E
:104A300000F062816F4A934200F2BD816E4A934258
:104A400000F056816C4A934200F2B5816B4A934262
:104A500000F04A81694A934200F2AD81684A93426C
:104A600000F03E81664A934200F2A581654A934276
:104A700000F03281634A934200F29D81624A934280
:104A800000F02681604A934200F295815F4A93428A
:104A900000F01A815D4A934200F28D815C4A934294
:104AA00000F00E815A4A934200F28581594A93429E
:104AB00000F00281574A934200F27D81564A9342A8
:104AC00000F0F680544A934200F27581534A9342B3
:104AD00000F0EA80514A934200F26D81504A9342BD
:104AE00000F0DE804E4A934200F265814D4A9342C7
:104AF00000F0D2804B4A934200F25D814A4A9342D1
:104B000000F0C680484A934200F25581474A9342DA
:104B100000F0BA80454A934200F24D81444A9342E4
:104B200000F0AE80424A934200F24581414A9342EE
:104B300000F0A2803F4A934200F23D813E4A9342F8
:104B400000F096803C4A934200F235813B4A934202
:104B500000F08A80394A934200F22D81384A93420C
:104B60007ED0374A934200F22681364A934273D070
:104B7000344A934200F21F81334A934268D0324A4A
:104B8000934200F21881B3F1402F07D02F4A93428D
:104B900008D010E10920FFF786F901E10020FFF7B6
:104BA00071FAFDE00120FFF76DFAF9E000140F4003
:104BB00000100F40000C0F4000080F4000040F4091
:104BC00000000F4000100E40000C0E4000080E4088
:104BD00000040E4000000E4000000B4000600A4040
:104BE00000500A4000400A4000200A4000100A40DD
:104BF00000040A4000000A400000084000C00740CE
:104C0000008007400000074000C0064000800640CA
:104C100000400640000006400000044000C0034081
:104C2000008003400000034000C0024000800240BA
:104C30000040024000C4014000C001400084014027
:104C40000080014000400140000001400080004021
:104C50000220FFF717FAA3E00320FFF713FA9FE003
:104C60000420FFF70FFA9BE00520FFF70BFA97E00F
:104C70000620FFF707FA93E00720FFF703FA8FE01B
:104C80000820FFF7FFF98BE00920FFF7FBF987E029
:104C90000A20FFF7F7F983E00B20FFF7F3F97FE035
:104CA0000C20FFF7EFF97BE00D20FFF7EBF977E041
:104CB0000E20FFF7E7F973E00F20FFF7E3F96FE04D
:104CC0001020FFF7DFF96BE01120FFF7DBF967E059
:104CD0001220FFF7D7F963E01320FFF7D3F95FE065
:104CE0001520FFF7CFF95BE01620FFF7CBF957E06F
:104CF0001720FFF7C7F953E00020FFF7FBF94FE05B
:104D00000220FFF7D0F80120FFF7F4F948E0022075
:104D1000FFF7F0F944E00020FFF7C5F80320FFF7A4
:104D2000E9F93DE00420FFF7BEF80420FFF7E2F9BF
:104D300036E00320FFF7B7F80520FFF7DBF92FE097
:104D40000620FFF7D7F92BE00020FFF7C4F827E093
:104D50000120FFF7C0F823E00220FFF7BCF81FE0B6
:104D60000320FFF7B8F81BE00420FFF7B4F817E0C2
:104D70000020FFF7C8F813E00120FFF7C4F80FE0A8
:104D80000220FFF7C0F80BE00320FFF7BCF807E0B4
:104D90000420FFF7B8F803E00520FFF7B4F800BFE0
:104DA000074B9A6A40F60C731340002B04D17F2006
:104DB000FFF7D0F800E000BF0837BD4680BD00BF58
:104DC00000000E4080B58AB000AFF860B9607A602C
:104DD0003B6000237B6200233B620023FB610023D6
:104DE000BB6100237B61FB68002B06D0FB68013BA5
:104DF00003F0070343F080037B62BB68002B06D0FF
:104E0000BB68013B03F0070343F080033B627B6810
:104E1000002B06D07B68013B03F0070343F08003BF
:104E2000FB613B68002B06D03B68013B03F00703A6
:104E300043F08003BB613B6B002B06D03B6B013B17
:104E400003F0070343F080037B61FEF7CFFC38617A
:104E5000124B134A9A65114A7B6A53600F4B114AF1
:104E60009A650E4A3B6AD3600C4B0F4A9A650B4A0F
:104E7000FB691361094B0D4A9A65084ABB69536186
:104E8000064B0B4A9A65054A7B6993613869FEF7C0
:104E9000DAFC00BF2837BD4680BD00BF00000E40D1
:104EA000040000AA0C0000AA100000AA140000AA26
:104EB000180000AA80B584B000AF7860FEF796FCB9
:104EC000F860074B4FF02A429A65054A7B681360E9
:104ED000F868FEF7B8FC00BF1037BD4680BD00BFC4
:104EE00000000E4080B500AF0520FFF7E7F8032073
:104EF000FEF7CDFF012210210720FEF774FF00BF4F
:104F000080BD80B500AF0720FEF7B8FE00BF80BDB2
:104F100080B586B000AF00233B610023FB752248BB
:104F2000FFF786FA204B01229A6000BF1E4BDB6818
:104F300003F00103002BF9D000233B610023FB7534
:104F40000020FEF710FEFEF77FFFFB7D1A46396951
:104F5000FCF7AAFE0220FFF7ADFF144BBB603B69D4
:104F60007B6001233B603B68002B04D17968B86803
:104F7000FEF71EF804E00E4A7968B868FDF7CCFF2A
:104F800000BF0A48FEF73CF9034603F00103002B7B
:104F9000F7D0FEF72BFCF860F868FEF754FC00BF72
:104FA0001837BD4680BD00BF00040A4000000F4016
:104FB00080A9030080B483B000AFEFF310837B605F
:104FC0007B68002B0CBF01230023DBB23B6072B671
:104FD00000BFBFF35F8F00BF044B00221A703B6815
:104FE00018460C37BD4680BC704700BF90000020BB
:104FF00080B483B000AF78607B68002B14BF0123BE
:105000000023DBB218460C37BD4680BC704780B524
:1050100082B000AF78607868FFF7EAFF0346002BA4
:1050200007D0064B01221A70BFF35F8F00BF62B634
:1050300000BF00BF0837BD4680BD00BF9000002004
:1050400080B483B000AF786039607B681B68064924
:1050500043F001023B681C339B000B445A6000BFC5
:105060000C37BD4680BC704700080E4080B483B04A
:1050700000AF7860054A7B681C339B001344002214
:105080005A6000BF0C37BD4680BC704700080E4018
:1050900080B483B000AF7860064B5B6903F0040313
:1050A000002B14BF01230023DBB218460C37BD468A
:1050B00080BC704700080E4080B588B000AF7860B3
:1050C0003960FFF777FFF8612D4B2E4A9A612C4B20
:1050D00001229A62F869FFF79AFF294B5B6903F096
:1050E0000803002BF9D0FFF765FFB861244B254A70
:1050F0009A617B685B68224A43F001039362B86956
:10510000FFF785FF1E4B5B6903F00803002BF9D006
:10511000FFF750FF78611A4B1B4A9A61184A7B6867
:105120009B6813637869FFF772FF154B5B6903F0A7
:105130000803002BF9D0FFF73DFF3861104B134AED
:105140009A610F4A7B685B69D3623869FFF75FFF3A
:105150000B4B5B6903F00803002BF9D0FFF72AFF24
:10516000F860074B0A4A9A61054A7B681B6993639A
:10517000F868FFF74CFF00BF2037BD4680BD00BF79
:1051800000080E40280000AA300000AA2C0000AA47
:10519000380000AA80B584B000AF7860144B0122BB
:1051A0001A6400BF124B5B6903F00803002BF9D0AF
:1051B0000F4B9B6AFB60FB6823F00103FB600C4B09
:1051C0005B6903F00803002BF9D0FFF7F3FEB8602A
:1051D000074B084A9A61064AFB689362B868FFF772
:1051E00016FF0020FFF742FF00BF1037BD4680BD0D
:1051F00000080E40280000AA80B588B000AF786093
:1052000039607B6800211846FFF71AFFFFF7D2FECE
:10521000F8612D4B2D4A9A612B4B01229A62F86955
:10522000FFF7F5FE284B5B6903F00803002BF9D06C
:10523000FFF7C0FEB861244B254A9A61224A7B6879
:10524000DB685363B869FFF7E2FE1F4B5B6903F04D
:105250000803002BF9D0FFF7ADFE78611A4B1D4A09
:105260009A61194A7B689B6813637869FFF7CFFEE0
:10527000154B5B6903F00803002BF9D0FFF79AFE8A
:105280003861114B144A9A610F4A7B681B6993631A
:105290003869FFF7BCFE0C4B5B6903F00803002B79
:1052A000F9D0FFF787FEF860074B084A9A617B68E0
:1052B0005B68054A43F001039362F868FFF7A7FEB5
:1052C00000BF2037BD4680BD00080E40280000AA60
:1052D000340000AA300000AA380000AA80B584B0CB
:1052E00000AF7860144B01221A6400BF124B5B6957
:1052F00003F00803002BF9D00F4B9B6AFB60FB689F
:1053000023F00103FB600C4B5B6903F00803002BE7
:10531000F9D0FFF74FFEB860074B084A9A61064A7A
:10532000FB689362B868FFF772FE0020FFF79EFEED
:1053300000BF1037BD4680BD00080E40280000AAFF
:1053400080B582B000AF78600C4B9B6A03F002031B
:10535000002B0BD0094B9B6A03F00103002B05D0F7
:105360007868FFF795FE0346002B03D1044B1B78AA
:10537000002B00E000BF0837BD4680BD00080E408E
:105380008106002080B483B000AFEFF310837B6010
:105390007B68002B0CBF01230023DBB23B6072B69D
:1053A00000BFBFF35F8F00BF044B00221A703B6841
:1053B00018460C37BD4680BC704700BF90000020E7
:1053C00080B483B000AF78607B68002B14BF0123EA
:1053D0000023DBB218460C37BD4680BC704780B551
:1053E00082B000AF78607868FFF7EAFF0346002BD1
:1053F00007D0064B01221A70BFF35F8F00BF62B661
:1054000000BF00BF0837BD4680BD00BF9000002030
:1054100080B582B000AFFFF7B5FF7860064B074A52
:105420009A61054B064A1A627868FFF7D8FF00BFF9
:105430000837BD4680BD00BF00080E40200000AA0E
:105440000703010080B582B000AFFFF79BFF7860D3
:10545000094B1B6A3B603B6823F480333B60064B7F
:10546000064A9A61044A3B6813627868FFF7B7FFFF
:1054700000BF0837BD4680BD00080E40200000AACE
:1054800080B582B000AFFFF77DFF7860064B074A1A
:105490009A61054B064A1A627868FFF7A0FF00BFC1
:1054A0000837BD4680BD00BF00040F40200000AAA1
:1054B0000DA1050080B582B000AFFFF763FF7860F3
:1054C0000B4B0C4A9A610A4B1B6A094A23F00103F1
:1054D000136200BF064B5B6903F00103002BF9D197
:1054E0007868FFF77CFF00BF0837BD4680BD00BF6E
:1054F00000040F40200000AA80B582B000AFFFF783
:1055000041FF7860084B5B6A3B60074B074A9A6132
:10551000054A3B6843F0050353627868FFF75FFF75
:1055200000BF0837BD4680BD00040F40240000AA1C
:1055300080B582B000AFFFF725FF7860094B5B6A4A
:105540003B603B6823F001033B60064B064A9A61CF
:10555000044A3B6853627868FFF741FF00BF083791
:10556000BD4680BD00040F40240000AA80B582B073
:1055700000AFFFF707FF7860084B9B6D3B60074B60
:10558000074A9A61054A3B6843F0010393657868CE
:10559000FFF725FF00BF0837BD4680BD00040F4060
:1055A000580000AA80B582B000AFFFF7EBFE78602C
:1055B000094B9B6D3B603B6823F001033B60064B4E
:1055C000064A9A61044A3B6893657868FFF707FFCB
:1055D00000BF0837BD4680BD00040F40580000AA38
:1055E00080B582B000AFFFF7CDFE7860084B1B6D31
:1055F0003B60074B074A9A61054A3B6843F0010349
:1056000013657868FFF7EBFE00BF0837BD4680BD25
:1056100000080E40500000AA80B582B000AFFFF72E
:10562000B1FE7860094B1B6D3B603B6823F00103C2
:105630003B60064B064A9A61044A3B6813657868EA
:10564000FFF7CDFE00BF0837BD4680BD00080E4005
:10565000500000AA80B582B000AFFFF793FE7860DB
:105660000A4B9B6C3B603B6823F440733B60074BE9
:10567000074A9A61054A3B6843F0010393647868DE
:10568000FFF7ADFE00BF0837BD4680BD00080E40E5
:10569000480000AA80B582B000AFFFF773FE7860C3
:1056A0000B4B9B6C3B603B6823F440733B603B6857
:1056B00023F001033B60064B064A9A61044A3B68AB
:1056C00093647868FFF78BFE00BF0837BD4680BD46
:1056D00000080E40480000AA80B483B000AFEFF38A
:1056E00010837B607B68002B0CBF01230023DBB29F
:1056F0003B6072B600BFBFF35F8F00BF044B002258
:105700001A703B6818460C37BD4680BC704700BF16
:105710009000002080B483B000AF78607B68002BDD
:1057200014BF01230023DBB218460C37BD4680BCF2
:10573000704780B582B000AF78607868FFF7EAFF05
:105740000346002B07D0064B01221A70BFF35F8F70
:1057500000BF62B600BF00BF0837BD4680BD00BFB6
:105760009000002080B584B000AF78603960FFF70A
:10577000B3FFF8603B6809339B0003F47F73094A69
:1057800043F02A43936107497B681A683B680833F2
:105790009B000B445A60F868FFF7CBFF00BF10373F
:1057A000BD4680BD00080E4080B584B000AF786073
:1057B0003960FFF791FFF8603B6809339B0003F401
:1057C0007F730A4A43F02A4393617B681B68074949
:1057D00043F001023B6808339B000B445A60F868B1
:1057E000FFF7A7FF00BF1037BD4680BD00080E4081
:1057F00080B584B000AF7860FFF76EFFF8607B681B
:1058000009339B0003F47F73084A43F02A439361F2
:10581000064A7B6808339B00134400225A60F868EC
:10582000FFF787FF00BF1037BD4680BD00080E4060
:1058300080B483B000AF114B1B68002B14D1EFF381
:1058400010837B607B68002B0BD172B600BFBFF367
:105850005F8F00BF0A4B00221A700A4B01221A7098
:1058600002E0084B00221A70044B1B680133034A04
:10587000136000BF0C37BD4680BC70479406002003
:10588000900000209806002080B400AF0C4B1B68ED
:10589000013B0B4A13600A4B1B68002B0CD1094BD0
:1058A0001B78DBB2002B07D0074B01221A70BFF325
:1058B0005F8F00BF62B600BF00BFBD4680BC7047AF
:1058C00094060020980600209000002080B586B045
:1058D00000AFF860B9607A6000237B61FB68002B41
:1058E00012D04FF0FF3313E00B4B1B680B4A1268CA
:1058F000B96810469847BB680133BB607B690133C8
:105900007B617B68013B7B607B68002BECDC7B6907
:1059100018461837BD4680BDA4060020B0060020FA
:1059200080B586B000AFF860B9607A6000237B6113
:10593000FB68012B1ED0FB68022B1BD0FB68032BDE
:1059400018D04FF0FF3319E00E4B1A680E4B186851
:10595000BB68591CB9601B78194690470346002B59
:1059600002DA4FF0FF3309E07B6901337B617B682A
:10597000013B7B607B68002BE6D17B6918461837BA
:10598000BD4680BDB4060020B006002008B5002149
:10599000044600F07FFC034B1B6803B19847204688
:1059A000FDF70CFFF0070020024A0349034800F00E
:1059B000F9BC00BF94000020A9680000B8040020D2
:1059C0000C4B416810B59942044601D000F06CFFC1
:1059D000A168094B994202D0204600F065FFE168BA
:1059E000064B994204D02046BDE8104000F05CBF51
:1059F00010BD00BFB8060020200700208807002047
:105A000008B54B6EDA0702D48B899B0501D50020BF
:105A100008BD886D00F090FD002008BD08B54B6EF4
:105A2000DA0702D48B899B0501D5002008BD886D5B
:105A300000F08AFD002008BD2DE9F843002504236D
:105A4000304C314A3149DFF8C890DFF8C880324F16
:105A5000324E116004F15C0029460822C4E9033586
:105A6000C4E90055C4E90555A560656600F0CEFCA3
:105A700004F15800C4E90749C4E90987E66200F067
:105A800053FD274B2946082204F1C4006367C4E98B
:105A90001A55C4E91E552567C4F8CC50C4F8805087
:105AA00000F0B4FC04F1680304F1C000C4F88430D1
:105AB000C4E92298C4E9247600F036FD194B294642
:105AC00004F596700822C4F8DC30C4E93455C4E902
:105AD0003855C4F8D850C4F83451C4F8E85000F030
